{
  "_format": "hh-sol-artifact-1",
  "contractName": "OrderBook",
  "sourceName": "contracts/OrderBook.sol",
  "abi": [
    {
      "inputs": [
        {
          "internalType": "address",
          "name": "admin",
          "type": "address"
        },
        {
          "internalType": "contract IERC20",
          "name": "_usdc",
          "type": "address"
        },
        {
          "internalType": "contract InvoiceShares",
          "name": "_shares",
          "type": "address"
        },
        {
          "internalType": "contract InsurancePool",
          "name": "_insurance",
          "type": "address"
        },
        {
          "internalType": "address",
          "name": "_feeRecipient",
          "type": "address"
        }
      ],
      "stateMutability": "nonpayable",
      "type": "constructor"
    },
    {
      "inputs": [],
      "name": "AccessControlBadConfirmation",
      "type": "error"
    },
    {
      "inputs": [
        {
          "internalType": "address",
          "name": "account",
          "type": "address"
        },
        {
          "internalType": "bytes32",
          "name": "neededRole",
          "type": "bytes32"
        }
      ],
      "name": "AccessControlUnauthorizedAccount",
      "type": "error"
    },
    {
      "inputs": [
        {
          "internalType": "address",
          "name": "token",
          "type": "address"
        }
      ],
      "name": "SafeERC20FailedOperation",
      "type": "error"
    },
    {
      "anonymous": false,
      "inputs": [
        {
          "indexed": false,
          "internalType": "address",
          "name": "recipient",
          "type": "address"
        }
      ],
      "name": "FeeRecipientUpdated",
      "type": "event"
    },
    {
      "anonymous": false,
      "inputs": [
        {
          "indexed": true,
          "internalType": "uint256",
          "name": "invoiceId",
          "type": "uint256"
        },
        {
          "indexed": true,
          "internalType": "address",
          "name": "seller",
          "type": "address"
        },
        {
          "indexed": true,
          "internalType": "address",
          "name": "buyer",
          "type": "address"
        },
        {
          "indexed": false,
          "internalType": "uint256",
          "name": "qty",
          "type": "uint256"
        },
        {
          "indexed": false,
          "internalType": "uint256",
          "name": "pricePerShare",
          "type": "uint256"
        },
        {
          "indexed": false,
          "internalType": "uint256",
          "name": "grossUsdc",
          "type": "uint256"
        },
        {
          "indexed": false,
          "internalType": "uint256",
          "name": "platformFee",
          "type": "uint256"
        },
        {
          "indexed": false,
          "internalType": "uint256",
          "name": "insuranceFee",
          "type": "uint256"
        },
        {
          "indexed": false,
          "internalType": "bool",
          "name": "primary",
          "type": "bool"
        }
      ],
      "name": "Matched",
      "type": "event"
    },
    {
      "anonymous": false,
      "inputs": [
        {
          "indexed": true,
          "internalType": "bytes32",
          "name": "role",
          "type": "bytes32"
        },
        {
          "indexed": true,
          "internalType": "bytes32",
          "name": "previousAdminRole",
          "type": "bytes32"
        },
        {
          "indexed": true,
          "internalType": "bytes32",
          "name": "newAdminRole",
          "type": "bytes32"
        }
      ],
      "name": "RoleAdminChanged",
      "type": "event"
    },
    {
      "anonymous": false,
      "inputs": [
        {
          "indexed": true,
          "internalType": "bytes32",
          "name": "role",
          "type": "bytes32"
        },
        {
          "indexed": true,
          "internalType": "address",
          "name": "account",
          "type": "address"
        },
        {
          "indexed": true,
          "internalType": "address",
          "name": "sender",
          "type": "address"
        }
      ],
      "name": "RoleGranted",
      "type": "event"
    },
    {
      "anonymous": false,
      "inputs": [
        {
          "indexed": true,
          "internalType": "bytes32",
          "name": "role",
          "type": "bytes32"
        },
        {
          "indexed": true,
          "internalType": "address",
          "name": "account",
          "type": "address"
        },
        {
          "indexed": true,
          "internalType": "address",
          "name": "sender",
          "type": "address"
        }
      ],
      "name": "RoleRevoked",
      "type": "event"
    },
    {
      "inputs": [],
      "name": "BPS_DENOM",
      "outputs": [
        {
          "internalType": "uint16",
          "name": "",
          "type": "uint16"
        }
      ],
      "stateMutability": "view",
      "type": "function"
    },
    {
      "inputs": [],
      "name": "DEFAULT_ADMIN_ROLE",
      "outputs": [
        {
          "internalType": "bytes32",
          "name": "",
          "type": "bytes32"
        }
      ],
      "stateMutability": "view",
      "type": "function"
    },
    {
      "inputs": [],
      "name": "INSURANCE_FEE_BPS",
      "outputs": [
        {
          "internalType": "uint16",
          "name": "",
          "type": "uint16"
        }
      ],
      "stateMutability": "view",
      "type": "function"
    },
    {
      "inputs": [],
      "name": "MATCHER_ROLE",
      "outputs": [
        {
          "internalType": "bytes32",
          "name": "",
          "type": "bytes32"
        }
      ],
      "stateMutability": "view",
      "type": "function"
    },
    {
      "inputs": [],
      "name": "PRIMARY_FEE_BPS",
      "outputs": [
        {
          "internalType": "uint16",
          "name": "",
          "type": "uint16"
        }
      ],
      "stateMutability": "view",
      "type": "function"
    },
    {
      "inputs": [],
      "name": "SECONDARY_FEE_BPS",
      "outputs": [
        {
          "internalType": "uint16",
          "name": "",
          "type": "uint16"
        }
      ],
      "stateMutability": "view",
      "type": "function"
    },
    {
      "inputs": [
        {
          "internalType": "uint256",
          "name": "invoiceId",
          "type": "uint256"
        },
        {
          "internalType": "address",
          "name": "seller",
          "type": "address"
        },
        {
          "internalType": "address",
          "name": "buyer",
          "type": "address"
        },
        {
          "internalType": "uint256",
          "name": "qty",
          "type": "uint256"
        },
        {
          "internalType": "uint256",
          "name": "pricePerShare",
          "type": "uint256"
        }
      ],
      "name": "executeMatch",
      "outputs": [],
      "stateMutability": "nonpayable",
      "type": "function"
    },
    {
      "inputs": [],
      "name": "feeRecipient",
      "outputs": [
        {
          "internalType": "address",
          "name": "",
          "type": "address"
        }
      ],
      "stateMutability": "view",
      "type": "function"
    },
    {
      "inputs": [
        {
          "internalType": "bytes32",
          "name": "role",
          "type": "bytes32"
        }
      ],
      "name": "getRoleAdmin",
      "outputs": [
        {
          "internalType": "bytes32",
          "name": "",
          "type": "bytes32"
        }
      ],
      "stateMutability": "view",
      "type": "function"
    },
    {
      "inputs": [
        {
          "internalType": "bytes32",
          "name": "role",
          "type": "bytes32"
        },
        {
          "internalType": "address",
          "name": "account",
          "type": "address"
        }
      ],
      "name": "grantRole",
      "outputs": [],
      "stateMutability": "nonpayable",
      "type": "function"
    },
    {
      "inputs": [
        {
          "internalType": "bytes32",
          "name": "role",
          "type": "bytes32"
        },
        {
          "internalType": "address",
          "name": "account",
          "type": "address"
        }
      ],
      "name": "hasRole",
      "outputs": [
        {
          "internalType": "bool",
          "name": "",
          "type": "bool"
        }
      ],
      "stateMutability": "view",
      "type": "function"
    },
    {
      "inputs": [],
      "name": "insurance",
      "outputs": [
        {
          "internalType": "contract InsurancePool",
          "name": "",
          "type": "address"
        }
      ],
      "stateMutability": "view",
      "type": "function"
    },
    {
      "inputs": [
        {
          "internalType": "bytes32",
          "name": "role",
          "type": "bytes32"
        },
        {
          "internalType": "address",
          "name": "callerConfirmation",
          "type": "address"
        }
      ],
      "name": "renounceRole",
      "outputs": [],
      "stateMutability": "nonpayable",
      "type": "function"
    },
    {
      "inputs": [
        {
          "internalType": "bytes32",
          "name": "role",
          "type": "bytes32"
        },
        {
          "internalType": "address",
          "name": "account",
          "type": "address"
        }
      ],
      "name": "revokeRole",
      "outputs": [],
      "stateMutability": "nonpayable",
      "type": "function"
    },
    {
      "inputs": [
        {
          "internalType": "address",
          "name": "recipient",
          "type": "address"
        }
      ],
      "name": "setFeeRecipient",
      "outputs": [],
      "stateMutability": "nonpayable",
      "type": "function"
    },
    {
      "inputs": [],
      "name": "shares",
      "outputs": [
        {
          "internalType": "contract InvoiceShares",
          "name": "",
          "type": "address"
        }
      ],
      "stateMutability": "view",
      "type": "function"
    },
    {
      "inputs": [
        {
          "internalType": "bytes4",
          "name": "interfaceId",
          "type": "bytes4"
        }
      ],
      "name": "supportsInterface",
      "outputs": [
        {
          "internalType": "bool",
          "name": "",
          "type": "bool"
        }
      ],
      "stateMutability": "view",
      "type": "function"
    },
    {
      "inputs": [],
      "name": "usdc",
      "outputs": [
        {
          "internalType": "contract IERC20",
          "name": "",
          "type": "address"
        }
      ],
      "stateMutability": "view",
      "type": "function"
    }
  ],
  "bytecode": "0x60e0346100ec57601f610e3f38819003918201601f19168301916001600160401b038311848410176100f05780849260a0946040528339810103126100ec5761004781610104565b60208201516001600160a01b03929083811681036100ec5760408201519084821682036100ec5760608301519285841684036100ec5761008c60806100929201610104565b94610118565b5060805260a05260c0521660018060a01b03196001541617600155604051610c879081610198823960805181818161035e015261057d015260a0518181816104cd0152610937015260c0518181816102d401526106f80152f35b5f80fd5b634e487b7160e01b5f52604160045260245ffd5b51906001600160a01b03821682036100ec57565b6001600160a01b03165f8181525f80516020610e1f833981519152602052604090205460ff16610192575f8181525f80516020610e1f83398151915260205260408120805460ff191660011790553391907f2f8788117e7eff1d82e926ec794901d17c78024a50270940304540a733656f0d8180a4600190565b505f9056fe6080604081815260049182361015610015575f80fd5b5f925f3560e01c91826301ffc9a7146109665750816303314efa1461092357816322d9240814610427578163248a9ca3146103fd5781632f2ff15d146103d357816336568abe1461038d5781633e413bee1461034957816346904840146103205781636637e38c1461030357816389cf3204146102bf57816391d148541461027c5781639559f12c14610260578163a217fddf14610245578163af75974014610229578163b2194ff5146101ee578163d547741f146101af578163e74b981b14610106575063f50374b3146100e8575f80fd5b346101025781600319360112610102576020905160198152f35b5080fd5b919050346101ab5760203660031901126101ab5781356001600160a01b03811692908390036101a7575f80525f602052815f20335f5260205260ff825f2054161561018b5750600180546001600160a01b03191683179055519081527f7a7b5a0a132f9e0581eb8527f66eae9ee89c2a3e79d4ac7e41a1f1f4d48a7fc290602090a180f35b604491519063e2517d3f60e01b825233908201525f6024820152fd5b5f80fd5b8280fd5b919050346101ab57806003193601126101ab576101ea91356101e560016101d46109b8565b938387528660205286200154610aa6565b610bdf565b5080f35b505034610102578160031936011261010257602090517fdf91394c13c48ebd5370100f1eb84afe3c6c47a78f9f9f874d5a9ec6afe0ae6b8152f35b5050346101025781600319360112610102576020905160328152f35b50503461010257816003193601126101025751908152602090f35b5050346101025781600319360112610102576020905160968152f35b9050346101ab57816003193601126101ab578160209361029a6109b8565b92358152808552209060018060a01b03165f52825260ff815f20541690519015158152f35b505034610102578160031936011261010257517f00000000000000000000000000000000000000000000000000000000000000006001600160a01b03168152602090f35b505034610102578160031936011261010257602090516127108152f35b50503461010257816003193601126101025760015490516001600160a01b039091168152602090f35b505034610102578160031936011261010257517f00000000000000000000000000000000000000000000000000000000000000006001600160a01b03168152602090f35b8383346101025780600319360112610102576103a76109b8565b90336001600160a01b038316036103c457506101ea919235610bdf565b5163334bd91960e11b81528390fd5b919050346101ab57806003193601126101ab576101ea91356103f860016101d46109b8565b610b63565b9050346101ab5760203660031901126101ab57816020936001923581528085522001549051908152f35b919050346101a75760a03660031901126101a75781356104456109b8565b6001600160a01b03604435818116959192908690036101a75760643592608435957fdf91394c13c48ebd5370100f1eb84afe3c6c47a78f9f9f874d5a9ec6afe0ae6b90815f526020915f8352815f20335f52835260ff825f205416156109055750851515806108fc575b156108cc578051631d11e60560e11b815285810188905260249890927f000000000000000000000000000000000000000000000000000000000000000085165f858c81845afa9485156108c2575f956107d2575b5060e0850151888110156107c05760010361078f57856060610525858c610a72565b9601518888169c91168c1498891561077f5761271061054a61ffff60965b1689610a72565b0497603288028881046032148915171561076d57908f9161271090049a61057a8c6105758d8d610a99565b610a99565b917f0000000000000000000000000000000000000000000000000000000000000000938a51906323b872dd60e01b5f5286523087528b604452885f60648180895af160015f511481161561074e575b818c525f6060521561073957508b610725575b8c806106f2575b5050816106e1575b505050823b156101a7575f8e60c48f8f968f9085918c51998a968795637921219560e11b87528a8701528a8601526044850152606484015260a060848401528160a48401525af180156106d757610683575b50508351988952508701528501526060840152608083015260a08201527fdafaf9ada6979747b73b01fb5c8958de57c590cd306f11bfcb576e120b2de1df9060c090a480f35b9091929d5067ffffffffffffffff83116106c657505082525f9a8160c07fdafaf9ada6979747b73b01fb5c8958de57c590cd306f11bfcb576e120b2de1df61063d565b604190634e487b7160e01b5f52525ffd5b86513d5f823e3d90fd5b6106ea92610ae5565b5f80806105eb565b61071e917f00000000000000000000000000000000000000000000000000000000000000001685610ae5565b5f8c6105e3565b6107348c826001541686610ae5565b6105dc565b635274afe760e01b8152908416818601528590fd5b600181151661076457853b15153d1516166105c9565b503d5f823e3d90fd5b83601184634e487b7160e01b5f52525ffd5b61271061054a61ffff6019610543565b835162461bcd60e51b8152808901839052600c818d01526b6e6f74207472616461626c6560a01b6044820152606490fd5b8b60218a634e487b7160e01b5f52525ffd5b9094503d805f833e6107e481836109ce565b81019082818303126101a757805167ffffffffffffffff918282116101a75701906101009283838203126101a7578651938401848110838211176108b05787528251845284830151858501528683015187850152606083015189811681036101a757606085015260808301518281116101a75781610863918501610a04565b608085015260a08301519182116101a75761087f918301610a04565b60a083015260c081015190898210156101a75760e09160c08401520151888110156101a75760e0820152935f610503565b8e60418d634e487b7160e01b5f52525ffd5b84513d5f823e3d90fd5b5162461bcd60e51b815280850191909152600a60248201526962616420706172616d7360b01b6044820152606490fd5b508715156104af565b905163e2517d3f60e01b815233818701526024810191909152604490fd5b82346101a7575f3660031901126101a757517f00000000000000000000000000000000000000000000000000000000000000006001600160a01b03168152602090f35b90346101a75760203660031901126101a757359063ffffffff60e01b82168092036101a757602091637965db0b60e01b81149081156109a7575b5015158152f35b6301ffc9a760e01b149050836109a0565b602435906001600160a01b03821682036101a757565b90601f8019910116810190811067ffffffffffffffff8211176109f057604052565b634e487b7160e01b5f52604160045260245ffd5b919080601f840112156101a757825167ffffffffffffffff81116109f05760209060405192610a3c83601f19601f85011601856109ce565b8184528282870101116101a7575f5b818110610a5f5750825f9394955001015290565b8581018301518482018401528201610a4b565b81810292918115918404141715610a8557565b634e487b7160e01b5f52601160045260245ffd5b91908203918211610a8557565b805f525f60205260405f20335f5260205260ff60405f20541615610ac75750565b6044906040519063e2517d3f60e01b82523360048301526024820152fd5b60405163a9059cbb60e01b5f9081526001600160a01b039384166004526024949094529260209060448180855af160015f5114811615610b44575b8360405215610b2e57505050565b635274afe760e01b835216600482015260249150fd5b6001811516610b5a57813b15153d151616610b20565b833d5f823e3d90fd5b90815f525f60205260405f209060018060a01b031690815f5260205260ff60405f205416155f14610bd957815f525f60205260405f20815f5260205260405f20600160ff1982541617905533917f2f8788117e7eff1d82e926ec794901d17c78024a50270940304540a733656f0d5f80a4600190565b50505f90565b90815f525f60205260405f209060018060a01b031690815f5260205260ff60405f2054165f14610bd957815f525f60205260405f20815f5260205260405f2060ff19815416905533917ff6391f5c32d9c69d2a47ea670b442974b53935d1edc7fd64eb21e047a839171b5f80a460019056fea2646970667358221220c2274c82c4d3cddc36c3e801142adf727d2880bf4f16ecb94a41cdadb7f38af964736f6c63430008180033ad3228b676f7d3cd4284a5443f17f1962b36e491b30a40b2405849e597ba5fb5",
  "linkReferences": {},
  "deployedLinkReferences": {}
}