{
  "_format": "hh-sol-artifact-1",
  "contractName": "InvoiceShares",
  "sourceName": "contracts/InvoiceShares.sol",
  "abi": [
    {
      "inputs": [
        {
          "internalType": "address",
          "name": "admin",
          "type": "address"
        }
      ],
      "stateMutability": "nonpayable",
      "type": "constructor"
    },
    {
      "inputs": [],
      "name": "AccessControlBadConfirmation",
      "type": "error"
    },
    {
      "inputs": [
        {
          "internalType": "address",
          "name": "account",
          "type": "address"
        },
        {
          "internalType": "bytes32",
          "name": "neededRole",
          "type": "bytes32"
        }
      ],
      "name": "AccessControlUnauthorizedAccount",
      "type": "error"
    },
    {
      "inputs": [
        {
          "internalType": "address",
          "name": "sender",
          "type": "address"
        },
        {
          "internalType": "uint256",
          "name": "balance",
          "type": "uint256"
        },
        {
          "internalType": "uint256",
          "name": "needed",
          "type": "uint256"
        },
        {
          "internalType": "uint256",
          "name": "tokenId",
          "type": "uint256"
        }
      ],
      "name": "ERC1155InsufficientBalance",
      "type": "error"
    },
    {
      "inputs": [
        {
          "internalType": "address",
          "name": "approver",
          "type": "address"
        }
      ],
      "name": "ERC1155InvalidApprover",
      "type": "error"
    },
    {
      "inputs": [
        {
          "internalType": "uint256",
          "name": "idsLength",
          "type": "uint256"
        },
        {
          "internalType": "uint256",
          "name": "valuesLength",
          "type": "uint256"
        }
      ],
      "name": "ERC1155InvalidArrayLength",
      "type": "error"
    },
    {
      "inputs": [
        {
          "internalType": "address",
          "name": "operator",
          "type": "address"
        }
      ],
      "name": "ERC1155InvalidOperator",
      "type": "error"
    },
    {
      "inputs": [
        {
          "internalType": "address",
          "name": "receiver",
          "type": "address"
        }
      ],
      "name": "ERC1155InvalidReceiver",
      "type": "error"
    },
    {
      "inputs": [
        {
          "internalType": "address",
          "name": "sender",
          "type": "address"
        }
      ],
      "name": "ERC1155InvalidSender",
      "type": "error"
    },
    {
      "inputs": [
        {
          "internalType": "address",
          "name": "operator",
          "type": "address"
        },
        {
          "internalType": "address",
          "name": "owner",
          "type": "address"
        }
      ],
      "name": "ERC1155MissingApprovalForAll",
      "type": "error"
    },
    {
      "anonymous": false,
      "inputs": [
        {
          "indexed": true,
          "internalType": "address",
          "name": "account",
          "type": "address"
        },
        {
          "indexed": true,
          "internalType": "address",
          "name": "operator",
          "type": "address"
        },
        {
          "indexed": false,
          "internalType": "bool",
          "name": "approved",
          "type": "bool"
        }
      ],
      "name": "ApprovalForAll",
      "type": "event"
    },
    {
      "anonymous": false,
      "inputs": [
        {
          "indexed": true,
          "internalType": "uint256",
          "name": "invoiceId",
          "type": "uint256"
        },
        {
          "indexed": true,
          "internalType": "address",
          "name": "seller",
          "type": "address"
        },
        {
          "indexed": false,
          "internalType": "uint256",
          "name": "faceValue",
          "type": "uint256"
        },
        {
          "indexed": false,
          "internalType": "uint256",
          "name": "totalShares",
          "type": "uint256"
        }
      ],
      "name": "InvoiceMinted",
      "type": "event"
    },
    {
      "anonymous": false,
      "inputs": [
        {
          "indexed": true,
          "internalType": "uint256",
          "name": "invoiceId",
          "type": "uint256"
        },
        {
          "indexed": false,
          "internalType": "enum InvoiceShares.Status",
          "name": "status",
          "type": "uint8"
        }
      ],
      "name": "InvoiceStatusChanged",
      "type": "event"
    },
    {
      "anonymous": false,
      "inputs": [
        {
          "indexed": true,
          "internalType": "bytes32",
          "name": "role",
          "type": "bytes32"
        },
        {
          "indexed": true,
          "internalType": "bytes32",
          "name": "previousAdminRole",
          "type": "bytes32"
        },
        {
          "indexed": true,
          "internalType": "bytes32",
          "name": "newAdminRole",
          "type": "bytes32"
        }
      ],
      "name": "RoleAdminChanged",
      "type": "event"
    },
    {
      "anonymous": false,
      "inputs": [
        {
          "indexed": true,
          "internalType": "bytes32",
          "name": "role",
          "type": "bytes32"
        },
        {
          "indexed": true,
          "internalType": "address",
          "name": "account",
          "type": "address"
        },
        {
          "indexed": true,
          "internalType": "address",
          "name": "sender",
          "type": "address"
        }
      ],
      "name": "RoleGranted",
      "type": "event"
    },
    {
      "anonymous": false,
      "inputs": [
        {
          "indexed": true,
          "internalType": "bytes32",
          "name": "role",
          "type": "bytes32"
        },
        {
          "indexed": true,
          "internalType": "address",
          "name": "account",
          "type": "address"
        },
        {
          "indexed": true,
          "internalType": "address",
          "name": "sender",
          "type": "address"
        }
      ],
      "name": "RoleRevoked",
      "type": "event"
    },
    {
      "anonymous": false,
      "inputs": [
        {
          "indexed": true,
          "internalType": "address",
          "name": "operator",
          "type": "address"
        },
        {
          "indexed": true,
          "internalType": "address",
          "name": "from",
          "type": "address"
        },
        {
          "indexed": true,
          "internalType": "address",
          "name": "to",
          "type": "address"
        },
        {
          "indexed": false,
          "internalType": "uint256[]",
          "name": "ids",
          "type": "uint256[]"
        },
        {
          "indexed": false,
          "internalType": "uint256[]",
          "name": "values",
          "type": "uint256[]"
        }
      ],
      "name": "TransferBatch",
      "type": "event"
    },
    {
      "anonymous": false,
      "inputs": [
        {
          "indexed": true,
          "internalType": "address",
          "name": "operator",
          "type": "address"
        },
        {
          "indexed": true,
          "internalType": "address",
          "name": "from",
          "type": "address"
        },
        {
          "indexed": true,
          "internalType": "address",
          "name": "to",
          "type": "address"
        },
        {
          "indexed": false,
          "internalType": "uint256",
          "name": "id",
          "type": "uint256"
        },
        {
          "indexed": false,
          "internalType": "uint256",
          "name": "value",
          "type": "uint256"
        }
      ],
      "name": "TransferSingle",
      "type": "event"
    },
    {
      "anonymous": false,
      "inputs": [
        {
          "indexed": false,
          "internalType": "string",
          "name": "value",
          "type": "string"
        },
        {
          "indexed": true,
          "internalType": "uint256",
          "name": "id",
          "type": "uint256"
        }
      ],
      "name": "URI",
      "type": "event"
    },
    {
      "inputs": [],
      "name": "DEFAULT_ADMIN_ROLE",
      "outputs": [
        {
          "internalType": "bytes32",
          "name": "",
          "type": "bytes32"
        }
      ],
      "stateMutability": "view",
      "type": "function"
    },
    {
      "inputs": [],
      "name": "ESCROW_ROLE",
      "outputs": [
        {
          "internalType": "bytes32",
          "name": "",
          "type": "bytes32"
        }
      ],
      "stateMutability": "view",
      "type": "function"
    },
    {
      "inputs": [],
      "name": "VERIFIER_ROLE",
      "outputs": [
        {
          "internalType": "bytes32",
          "name": "",
          "type": "bytes32"
        }
      ],
      "stateMutability": "view",
      "type": "function"
    },
    {
      "inputs": [
        {
          "internalType": "address",
          "name": "account",
          "type": "address"
        },
        {
          "internalType": "uint256",
          "name": "id",
          "type": "uint256"
        }
      ],
      "name": "balanceOf",
      "outputs": [
        {
          "internalType": "uint256",
          "name": "",
          "type": "uint256"
        }
      ],
      "stateMutability": "view",
      "type": "function"
    },
    {
      "inputs": [
        {
          "internalType": "address[]",
          "name": "accounts",
          "type": "address[]"
        },
        {
          "internalType": "uint256[]",
          "name": "ids",
          "type": "uint256[]"
        }
      ],
      "name": "balanceOfBatch",
      "outputs": [
        {
          "internalType": "uint256[]",
          "name": "",
          "type": "uint256[]"
        }
      ],
      "stateMutability": "view",
      "type": "function"
    },
    {
      "inputs": [
        {
          "internalType": "address",
          "name": "from",
          "type": "address"
        },
        {
          "internalType": "uint256",
          "name": "invoiceId",
          "type": "uint256"
        },
        {
          "internalType": "uint256",
          "name": "amount",
          "type": "uint256"
        }
      ],
      "name": "burnFrom",
      "outputs": [],
      "stateMutability": "nonpayable",
      "type": "function"
    },
    {
      "inputs": [
        {
          "internalType": "uint256",
          "name": "invoiceId",
          "type": "uint256"
        }
      ],
      "name": "getInvoice",
      "outputs": [
        {
          "components": [
            {
              "internalType": "uint256",
              "name": "faceValue",
              "type": "uint256"
            },
            {
              "internalType": "uint256",
              "name": "dueDate",
              "type": "uint256"
            },
            {
              "internalType": "uint256",
              "name": "totalShares",
              "type": "uint256"
            },
            {
              "internalType": "address",
              "name": "originalSeller",
              "type": "address"
            },
            {
              "internalType": "string",
              "name": "buyerName",
              "type": "string"
            },
            {
              "internalType": "string",
              "name": "currency",
              "type": "string"
            },
            {
              "internalType": "enum InvoiceShares.Rating",
              "name": "rating",
              "type": "uint8"
            },
            {
              "internalType": "enum InvoiceShares.Status",
              "name": "status",
              "type": "uint8"
            }
          ],
          "internalType": "struct InvoiceShares.Invoice",
          "name": "",
          "type": "tuple"
        }
      ],
      "stateMutability": "view",
      "type": "function"
    },
    {
      "inputs": [
        {
          "internalType": "bytes32",
          "name": "role",
          "type": "bytes32"
        }
      ],
      "name": "getRoleAdmin",
      "outputs": [
        {
          "internalType": "bytes32",
          "name": "",
          "type": "bytes32"
        }
      ],
      "stateMutability": "view",
      "type": "function"
    },
    {
      "inputs": [
        {
          "internalType": "bytes32",
          "name": "role",
          "type": "bytes32"
        },
        {
          "internalType": "address",
          "name": "account",
          "type": "address"
        }
      ],
      "name": "grantRole",
      "outputs": [],
      "stateMutability": "nonpayable",
      "type": "function"
    },
    {
      "inputs": [
        {
          "internalType": "bytes32",
          "name": "role",
          "type": "bytes32"
        },
        {
          "internalType": "address",
          "name": "account",
          "type": "address"
        }
      ],
      "name": "hasRole",
      "outputs": [
        {
          "internalType": "bool",
          "name": "",
          "type": "bool"
        }
      ],
      "stateMutability": "view",
      "type": "function"
    },
    {
      "inputs": [
        {
          "internalType": "uint256",
          "name": "",
          "type": "uint256"
        }
      ],
      "name": "invoices",
      "outputs": [
        {
          "internalType": "uint256",
          "name": "faceValue",
          "type": "uint256"
        },
        {
          "internalType": "uint256",
          "name": "dueDate",
          "type": "uint256"
        },
        {
          "internalType": "uint256",
          "name": "totalShares",
          "type": "uint256"
        },
        {
          "internalType": "address",
          "name": "originalSeller",
          "type": "address"
        },
        {
          "internalType": "string",
          "name": "buyerName",
          "type": "string"
        },
        {
          "internalType": "string",
          "name": "currency",
          "type": "string"
        },
        {
          "internalType": "enum InvoiceShares.Rating",
          "name": "rating",
          "type": "uint8"
        },
        {
          "internalType": "enum InvoiceShares.Status",
          "name": "status",
          "type": "uint8"
        }
      ],
      "stateMutability": "view",
      "type": "function"
    },
    {
      "inputs": [
        {
          "internalType": "address",
          "name": "account",
          "type": "address"
        },
        {
          "internalType": "address",
          "name": "operator",
          "type": "address"
        }
      ],
      "name": "isApprovedForAll",
      "outputs": [
        {
          "internalType": "bool",
          "name": "",
          "type": "bool"
        }
      ],
      "stateMutability": "view",
      "type": "function"
    },
    {
      "inputs": [
        {
          "internalType": "address",
          "name": "seller",
          "type": "address"
        },
        {
          "internalType": "uint256",
          "name": "faceValue",
          "type": "uint256"
        },
        {
          "internalType": "uint256",
          "name": "dueDate",
          "type": "uint256"
        },
        {
          "internalType": "uint256",
          "name": "totalShares",
          "type": "uint256"
        },
        {
          "internalType": "string",
          "name": "buyerName",
          "type": "string"
        },
        {
          "internalType": "string",
          "name": "currency",
          "type": "string"
        },
        {
          "internalType": "enum InvoiceShares.Rating",
          "name": "rating",
          "type": "uint8"
        }
      ],
      "name": "mintInvoice",
      "outputs": [
        {
          "internalType": "uint256",
          "name": "invoiceId",
          "type": "uint256"
        }
      ],
      "stateMutability": "nonpayable",
      "type": "function"
    },
    {
      "inputs": [],
      "name": "nextInvoiceId",
      "outputs": [
        {
          "internalType": "uint256",
          "name": "",
          "type": "uint256"
        }
      ],
      "stateMutability": "view",
      "type": "function"
    },
    {
      "inputs": [
        {
          "internalType": "bytes32",
          "name": "role",
          "type": "bytes32"
        },
        {
          "internalType": "address",
          "name": "callerConfirmation",
          "type": "address"
        }
      ],
      "name": "renounceRole",
      "outputs": [],
      "stateMutability": "nonpayable",
      "type": "function"
    },
    {
      "inputs": [
        {
          "internalType": "bytes32",
          "name": "role",
          "type": "bytes32"
        },
        {
          "internalType": "address",
          "name": "account",
          "type": "address"
        }
      ],
      "name": "revokeRole",
      "outputs": [],
      "stateMutability": "nonpayable",
      "type": "function"
    },
    {
      "inputs": [
        {
          "internalType": "address",
          "name": "from",
          "type": "address"
        },
        {
          "internalType": "address",
          "name": "to",
          "type": "address"
        },
        {
          "internalType": "uint256[]",
          "name": "ids",
          "type": "uint256[]"
        },
        {
          "internalType": "uint256[]",
          "name": "values",
          "type": "uint256[]"
        },
        {
          "internalType": "bytes",
          "name": "data",
          "type": "bytes"
        }
      ],
      "name": "safeBatchTransferFrom",
      "outputs": [],
      "stateMutability": "nonpayable",
      "type": "function"
    },
    {
      "inputs": [
        {
          "internalType": "address",
          "name": "from",
          "type": "address"
        },
        {
          "internalType": "address",
          "name": "to",
          "type": "address"
        },
        {
          "internalType": "uint256",
          "name": "id",
          "type": "uint256"
        },
        {
          "internalType": "uint256",
          "name": "value",
          "type": "uint256"
        },
        {
          "internalType": "bytes",
          "name": "data",
          "type": "bytes"
        }
      ],
      "name": "safeTransferFrom",
      "outputs": [],
      "stateMutability": "nonpayable",
      "type": "function"
    },
    {
      "inputs": [
        {
          "internalType": "address",
          "name": "operator",
          "type": "address"
        },
        {
          "internalType": "bool",
          "name": "approved",
          "type": "bool"
        }
      ],
      "name": "setApprovalForAll",
      "outputs": [],
      "stateMutability": "nonpayable",
      "type": "function"
    },
    {
      "inputs": [
        {
          "internalType": "uint256",
          "name": "invoiceId",
          "type": "uint256"
        },
        {
          "internalType": "enum InvoiceShares.Status",
          "name": "status",
          "type": "uint8"
        }
      ],
      "name": "setStatus",
      "outputs": [],
      "stateMutability": "nonpayable",
      "type": "function"
    },
    {
      "inputs": [
        {
          "internalType": "bytes4",
          "name": "interfaceId",
          "type": "bytes4"
        }
      ],
      "name": "supportsInterface",
      "outputs": [
        {
          "internalType": "bool",
          "name": "",
          "type": "bool"
        }
      ],
      "stateMutability": "view",
      "type": "function"
    },
    {
      "inputs": [
        {
          "internalType": "uint256",
          "name": "",
          "type": "uint256"
        }
      ],
      "name": "uri",
      "outputs": [
        {
          "internalType": "string",
          "name": "",
          "type": "string"
        }
      ],
      "stateMutability": "view",
      "type": "function"
    }
  ],
  "bytecode": "0x6080346200013c576001600160401b0390601f6200214338819003918201601f19168301918483118484101762000128578084926020946040528339810103126200013c5751906001600160a01b03821682036200013c57604051602081019182118183101762000128575f916040525260025490600191600181811c911680156200011d575b60208210146200010957601f8111620000bf575b620000ae825f600255600160045562000140565b50604051611f609081620001c38239f35b60025f52601f0160051c7f405787fa12a823e0f2b7631cc41b3ba8828b3321ca811111fa75cd3aa3bb5ace908101905b818110620000fe57506200009a565b5f81558301620000ef565b634e487b7160e01b5f52602260045260245ffd5b90607f169062000086565b634e487b7160e01b5f52604160045260245ffd5b5f80fd5b6001600160a01b03165f8181525f8051602062002123833981519152602052604090205460ff16620001bd575f8181525f805160206200212383398151915260205260408120805460ff191660011790553391907f2f8788117e7eff1d82e926ec794901d17c78024a50270940304540a733656f0d8180a4600190565b505f9056fe60806040526004361015610011575f80fd5b5f3560e01c8062fdd58e1461017357806301ffc9a71461016e5780630e89341c14610169578063124d91e514610164578063248a9ca31461015f5780632eb2c2d61461015a5780632f2ff15d1461015557806336568abe146101505780633a23cc0a1461014b57806346aac95f146101465780634e1273f4146101415780634e6d14051461013c5780636ce76f30146101375780636ff2a9531461013257806391d148541461012d578063a217fddf14610128578063a22cb46514610123578063d547741f1461011e578063d896dd6414610119578063e7705db614610114578063e985e9c51461010f5763f242432a1461010a575f80fd5b611191565b611141565b611107565b611093565b611056565b610f8a565b610f70565b610f22565b610f05565b610ecb565b610e57565b610c5d565b610b8c565b610a71565b610976565b610939565b610716565b61057e565b6103bf565b6102dc565b610216565b6101bc565b600435906001600160a01b038216820361018e57565b5f80fd5b602435906001600160a01b038216820361018e57565b35906001600160a01b038216820361018e57565b3461018e57604036600319011261018e5760206101fb6101da610178565b6024355f525f835260405f209060018060a01b03165f5260205260405f2090565b54604051908152f35b6001600160e01b031981160361018e57565b3461018e57602036600319011261018e57602060043561023581610204565b63ffffffff60e01b16637965db0b60e01b811490811561025b575b506040519015158152f35b636cdb3d1360e11b81149150811561028d575b811561027c575b505f610250565b6301ffc9a760e01b1490505f610275565b6303a24d0760e21b8114915061026e565b91908251928382525f5b8481106102c8575050825f602080949584010152601f8019910116010190565b6020818301810151848301820152016102a8565b3461018e5760208060031936011261018e57604051905f826002549161030183610d18565b92838352600190856001821691825f1461039f575050600114610344575b5061032c925003836105fd565b61034060405192828493845283019061029e565b0390f35b84915060025f527f405787fa12a823e0f2b7631cc41b3ba8828b3321ca811111fa75cd3aa3bb5ace905f915b85831061038757505061032c93508201015f61031f565b80548389018501528794508693909201918101610370565b60ff19168582015261032c95151560051b85010192505f915061031f9050565b3461018e57606036600319011261018e576103d8610178565b6103e06116bf565b6001600160a01b03811680156105675761041e6044356024359160405192600184526020840152604083019160018352606084015260808301604052565b90926040935f604051610430816105e1565b5280518351908181036105455750505f5b81518110156104e6578060051b6020808285010151918601015161048585610470845f525f60205260405f2090565b9060018060a01b03165f5260205260405f2090565b548181106104b0578561047060019594936104a99303935f525f60205260405f2090565b5501610441565b88516303dee4c560e01b81526001600160a01b038716600482015260248101919091526044810182905260648101839052608490fd5b5f858584600181511484146105255760209081015191810151604080519384529183015233915f80516020611f0b83398151915291819081015b0390a4005b60405133925f80516020611eeb8339815191529282916105209183611c07565b604051635b05999160e01b815260048101919091526024810191909152604490fd5b604051626a0d4560e21b81525f6004820152602490fd5b3461018e57602036600319011261018e576004355f5260036020526020600160405f200154604051908152f35b634e487b7160e01b5f52604160045260245ffd5b610100810190811067ffffffffffffffff8211176105dc57604052565b6105ab565b6020810190811067ffffffffffffffff8211176105dc57604052565b90601f8019910116810190811067ffffffffffffffff8211176105dc57604052565b6040519061062c826105bf565b565b67ffffffffffffffff81116105dc5760051b60200190565b9080601f8301121561018e5760209082356106608161062e565b9361066e60405195866105fd565b81855260208086019260051b82010192831161018e57602001905b828210610697575050505090565b81358152908301908301610689565b67ffffffffffffffff81116105dc57601f01601f191660200190565b9291926106ce826106a6565b916106dc60405193846105fd565b82948184528183011161018e578281602093845f960137010152565b9080601f8301121561018e57816020610713933591016106c2565b90565b3461018e5760a036600319011261018e5761072f610178565b610737610192565b9060443567ffffffffffffffff80821161018e5761075a60049236908401610646565b9260643582811161018e576107729036908501610646565b9160843590811161018e5761078a90369085016106f8565b9361079582336117b1565b6001600160a01b038681169590861561092257831695861561090c57825185518082036108e75750505f5b835181101561087b578060051b60208082870101519188010151906107f087610470835f525f60205260405f2090565b5482811061083d5761082d8c610470859460019796610835950361081f8d610470845f525f60205260405f2090565b555f525f60205260405f2090565b918254611bfa565b9055016107c0565b604080516303dee4c560e01b81526001600160a01b038a16818d01908152602081019390935290820193909352606081019190915281906080010390fd5b506108be92888587938a60018551145f146108c05760208581015187820151604080519283529282015233915f80516020611f0b83398151915291a45b33611eb3565b005b6040515f80516020611eeb8339815191523391806108df8a8a83611c07565b0390a46108b8565b60408051635b05999160e01b8152808a01938452602084019290925290918291010390fd5b604051626a0d4560e21b81525f81880152602490fd5b604051632bfa23e760e11b81525f81880152602490fd5b3461018e57604036600319011261018e576108be600435610958610192565b90805f526003602052610971600160405f200154611791565b61181f565b3461018e57604036600319011261018e5761098f610192565b336001600160a01b038216036109ab576108be906004356118af565b60405163334bd91960e11b8152600490fd5b600411156109c757565b634e487b7160e01b5f52602160045260245ffd5b906109e5826109bd565b52565b610713906020815282516020820152602083015160408201526040830151606082015260018060a01b036060840151166080820152608083015160e0610a55610a3f610100938460a087015261012086019061029e565b60a0870151858203601f190160c087015261029e565b94610a6760c0820151838601906109db565b01519101906109db565b3461018e57602036600319011261018e575f60e0604051610a91816105bf565b82815282602082015282604082015282606082015260606080820152606060a08201528260c082015201526004355f52600560205261034060405f20610b4860ff6006610adc61061f565b84548152600185015460208201526002850154604082015260038501546001600160a01b0316606082015293610b1460048201610d50565b6080860152610b2560058201610d50565b60a08601520154610b3b82821660c08601611246565b60081c1660e08301611246565b604051918291826109e8565b9181601f8401121561018e5782359167ffffffffffffffff831161018e576020838186019501011161018e57565b6004111561018e57565b3461018e5760e036600319011261018e57610ba5610178565b67ffffffffffffffff60843581811161018e57610bc6903690600401610b54565b60a49391933592831161018e5761034093610be8610c09943690600401610b54565b92909160c43594610bf886610b82565b60643590604435906024359061124f565b6040519081529081906020820190565b9081518082526020808093019301915f5b828110610c38575050505090565b835185529381019392810192600101610c2a565b906020610713928181520190610c19565b3461018e57604036600319011261018e5760043567ffffffffffffffff80821161018e573660238301121561018e578160040135610c9a8161062e565b92610ca860405194856105fd565b8184526020916024602086019160051b8301019136831161018e57602401905b828210610d01578560243586811161018e5761034091610cef610cf5923690600401610646565b90611624565b60405191829182610c4c565b838091610d0d846101a8565b815201910190610cc8565b90600182811c92168015610d46575b6020831014610d3257565b634e487b7160e01b5f52602260045260245ffd5b91607f1691610d27565b9060405191825f8254610d6281610d18565b908184526020946001916001811690815f14610dce5750600114610d90575b50505061062c925003836105fd565b5f90815285812095935091905b818310610db657505061062c93508201015f8080610d81565b85548884018501529485019487945091830191610d9d565b9250505061062c94925060ff191682840152151560051b8201015f8080610d81565b9490610e3b9460e09794610e2d949b9a999b6101009389526020890152604088015260018060a01b0316606087015280608087015285019061029e565b9083820360a085015261029e565b94610e45816109bd565b60c0820152610e53836109bd565b0152565b3461018e57602036600319011261018e576004355f52600560205260405f2080549061034060018201549160028101549360018060a01b0360038301541691610ea260048201610d50565b6006610eb060058401610d50565b9201549360405197889760ff808860081c1697169589610df0565b3461018e575f36600319011261018e5760206040517f2fdac322ee704ce09f0773f7f3f92eb98d5e7c836ee9c056cccd5f61041e5e3f8152f35b3461018e575f36600319011261018e576020600454604051908152f35b3461018e57604036600319011261018e57602060ff610f64610f42610192565b6004355f526003845260405f209060018060a01b03165f5260205260405f2090565b54166040519015158152f35b3461018e575f36600319011261018e5760206040515f8152f35b3461018e57604036600319011261018e57610fa3610178565b602435801515810361018e57331561103e576001600160a01b03821691821561102757335f908152600160205260409020610ff5918391610fe49190610470565b9060ff801983541691151516179055565b604051901515815233907f17307eab39ab6107e8899845ad3d59bd9653f200f220920489ca2b5937696c3190602090a3005b60405162ced3e160e81b81525f6004820152602490fd5b604051631f18c42760e11b81525f6004820152602490fd5b3461018e57604036600319011261018e576108be600435611075610192565b90805f52600360205261108e600160405f200154611791565b6118af565b3461018e57604036600319011261018e576004357f63186546e41a4082c1fa29562d179c8a9f175e2136c3f5f39504f67117f781fb60206024356110d681610b82565b6110de6116bf565b835f52600582526110f581600660405f2001611535565b60405190611102816109bd565b8152a2005b3461018e575f36600319011261018e5760206040517f0ce23c3e399818cfee81a7ab0880f714e53d7672b08df0fa62f2843416e1ea098152f35b3461018e57604036600319011261018e57602060ff610f64611161610178565b611169610192565b6001600160a01b039182165f9081526001865260408082209290931681526020919091522090565b3461018e5760a036600319011261018e576111aa610178565b6111b2610192565b60843567ffffffffffffffff811161018e576111d29036906004016106f8565b906111dd83336117b1565b6001600160a01b038181161561122e57831615610567576108be926112266064356044359160405192600184526020840152604083019160018352606084015260808301604052565b929091611a4c565b604051632bfa23e760e11b81525f6004820152602490fd5b6109e5826109bd565b93979192969590949561126061173a565b8515158061135b575b61127290611364565b61127d42851161139d565b60045498899761128c896113eb565b60045561129761061f565b8881526020810196909652604086018a90526001600160a01b038716606087015236906112c3926106c2565b608085015236906112d3926106c2565b60a08301526112e59060c08301611246565b600160e08201526112fe845f52600560205260405f2090565b9061130891611554565b6113106115ea565b61131c90858584611937565b6040805192835260208301949094526001600160a01b0316927f881b3356c91302df3b86b06710c720259f76e5c4696c76b0b21a3e73998a38b791a390565b50871515611269565b1561136b57565b60405162461bcd60e51b815260206004820152600a60248201526962616420706172616d7360b01b6044820152606490fd5b156113a457565b60405162461bcd60e51b815260206004820152600b60248201526a191d59481a5b881c185cdd60aa1b6044820152606490fd5b634e487b7160e01b5f52601160045260245ffd5b5f1981146113f95760010190565b6113d7565b601f821161140b57505050565b5f5260205f20906020601f840160051c83019310611443575b601f0160051c01905b818110611438575050565b5f815560010161142d565b9091508190611424565b919091825167ffffffffffffffff81116105dc576114758161146f8454610d18565b846113fe565b602080601f83116001146114b6575081906114a79394955f926114ab575b50508160011b915f199060031b1c19161790565b9055565b015190505f80611493565b90601f198316956114ca855f5260205f2090565b925f905b888210611505575050836001959697106114ed575b505050811b019055565b01515f1960f88460031b161c191690555f80806114e3565b806001859682949686015181550195019301906114ce565b90611527816109bd565b60ff80198354169116179055565b9061153f816109bd565b61ff0082549160081b169061ff001916179055565b81518155602082015160018201556040820151600282015560608201516003820180546001600160a01b0319166001600160a01b039290921691909117905561062c919060e0906006906115af60808501516004830161144d565b6115c060a08501516005830161144d565b01916115d960c08201516115d3816109bd565b8461151d565b0151906115e5826109bd565b611535565b604051906115f7826105e1565b5f8252565b80518210156116105760209160051b010190565b634e487b7160e01b5f52603260045260245ffd5b919091805183518082036105455750508051906116596116438361062e565b9261165160405194856105fd565b80845261062e565b60209190601f190136848401375f5b81518110156116b757600581901b8281018401519087018401515f908152602081815260408083206001600160a01b0390941683529290522054600191906116b082876115fc565b5201611668565b509193505050565b335f9081527fbc51a51fe33c3b622ecad08882ab05fd83ee599ee7c62acf54befe8928a9728b602052604090207f2fdac322ee704ce09f0773f7f3f92eb98d5e7c836ee9c056cccd5f61041e5e3f9060ff905b54161561171c5750565b6044906040519063e2517d3f60e01b82523360048301526024820152fd5b335f9081527f1a9c9d8fc5a84111fd56ad64c55c096669fc7e27550ab57859cc36b5a053f464602052604090207f0ce23c3e399818cfee81a7ab0880f714e53d7672b08df0fa62f2843416e1ea099060ff90611712565b5f818152600360209081526040808320338452909152902060ff90611712565b6001600160a01b038181169216908183141590816117f1575b506117d3575050565b604492506040519163711bec9160e11b835260048301526024820152fd5b5f8381526001602090815260408083206001600160a01b0390941683529290522060ff91505416155f6117ca565b5f8181526003602090815260408083206001600160a01b038616845290915290205460ff166118a9575f8181526003602090815260408083206001600160a01b03861684529091529020805460ff1916600117905533916001600160a01b0316907f2f8788117e7eff1d82e926ec794901d17c78024a50270940304540a733656f0d5f80a4600190565b50505f90565b5f8181526003602090815260408083206001600160a01b038616845290915290205460ff16156118a9575f8181526003602090815260408083206001600160a01b03861684529091529020805460ff1916905533916001600160a01b0316907ff6391f5c32d9c69d2a47ea670b442974b53935d1edc7fd64eb21e047a839171b5f80a4600190565b92936001600160a01b038416939092909190841561122e5761197660405192600184526020840152604083019160018352606084015260808301604052565b92909485518451908181036105455750505f5b86518110156119c8578060019160051b6119c061082d87610470848d6020918291010151958c010151945f525f60205260405f2090565b905501611989565b509290946020809161062c9660018251145f14611a24575f838301515f80516020611f0b833981519152611a148689015160405191829133958360209093929193604081019481520152565b0390a45b01519101519133611cd3565b5f6040515f80516020611eeb833981519152339180611a448a8883611c07565b0390a4611a18565b9491909181518451908181036105455750505f5b8251811015611b4557600581901b83810160209081015191870101516001600160a01b03929186908a8516611ac5575b6001948216611aa3575b50505001611a60565b611abb9161047061082d925f525f60205260405f2090565b90555f8581611a9a565b9192939050611adf8a610470845f525f60205260405f2090565b54838110611b0e5791879184600196959403611b068d610470855f525f60205260405f2090565b559450611a90565b6040516303dee4c560e01b81526001600160a01b038c16600482015260248101919091526044810184905260648101839052608490fd5b5094919392909360018551145f14611bc2576020858101518382015160408051928352928201526001600160a01b03838116929086169133915f80516020611f0b83398151915291a45b6001600160a01b038116611ba5575b5050505050565b602080611bb89601519201519233611dcc565b5f80808080611b9e565b6040516001600160a01b03828116919085169033905f80516020611eeb8339815191529080611bf2888c83611c07565b0390a4611b8f565b919082018092116113f957565b9091611c1e61071393604084526040840190610c19565b916020818403910152610c19565b9081602091031261018e575161071381610204565b909260a0926107139594600180861b031683525f602084015260408301526060820152816080820152019061029e565b919261071395949160a094600180871b03809216855216602084015260408301526060820152816080820152019061029e565b3d15611cce573d90611cb5826106a6565b91611cc360405193846105fd565b82523d5f602084013e565b606090565b9293919093843b611ce5575050505050565b602091611d08604051948593849363f23a6e6160e01b9889865260048601611c41565b03815f6001600160a01b0388165af15f9181611d9b575b50611d5e5782611d2d611ca4565b8051919082611d5757604051632bfa23e760e11b81526001600160a01b0383166004820152602490fd5b6020915001fd5b6001600160e01b03191603611d7857505f80808080611b9e565b604051632bfa23e760e11b81526001600160a01b03919091166004820152602490fd5b611dbe91925060203d602011611dc5575b611db681836105fd565b810190611c2c565b905f611d1f565b503d611dac565b939290949194853b611de1575b505050505050565b611e04602093604051958694859463f23a6e6160e01b998a875260048701611c71565b03815f6001600160a01b0388165af15f9181611e44575b50611e295782611d2d611ca4565b6001600160e01b03191603611d7857505f8080808080611dd9565b611e5e91925060203d602011611dc557611db681836105fd565b905f611e1b565b93906107139593611e9791611ea59460018060a01b03809216885216602087015260a0604087015260a0860190610c19565b908482036060860152610c19565b91608081840391015261029e565b939290949194853b611ec757505050505050565b611e04602093604051958694859463bc197c8160e01b998a875260048701611e6556fe4a39dc06d4c0dbc64b70af90fd698a233a518aa5d07e595d983b8c0526c8f7fbc3d58168c5ae7397731d063d5bbf3d657854427343f4c083240f7aacaa2d0f62a264697066735822122021d8cad7be668ee89f4984fd835f246699226661e3a35ec1c4e4536d6b0a0e3d64736f6c634300081800333617319a054d772f909f7c479a2cebe5066e836a939412e32403c99029b92eff",
  "linkReferences": {},
  "deployedLinkReferences": {}
}