{
  "_format": "hh-sol-artifact-1",
  "contractName": "Escrow",
  "sourceName": "contracts/Escrow.sol",
  "abi": [
    {
      "inputs": [
        {
          "internalType": "address",
          "name": "admin",
          "type": "address"
        },
        {
          "internalType": "contract IERC20",
          "name": "_usdc",
          "type": "address"
        },
        {
          "internalType": "contract InvoiceShares",
          "name": "_shares",
          "type": "address"
        },
        {
          "internalType": "contract InsurancePool",
          "name": "_insurance",
          "type": "address"
        }
      ],
      "stateMutability": "nonpayable",
      "type": "constructor"
    },
    {
      "inputs": [],
      "name": "AccessControlBadConfirmation",
      "type": "error"
    },
    {
      "inputs": [
        {
          "internalType": "address",
          "name": "account",
          "type": "address"
        },
        {
          "internalType": "bytes32",
          "name": "neededRole",
          "type": "bytes32"
        }
      ],
      "name": "AccessControlUnauthorizedAccount",
      "type": "error"
    },
    {
      "inputs": [
        {
          "internalType": "address",
          "name": "token",
          "type": "address"
        }
      ],
      "name": "SafeERC20FailedOperation",
      "type": "error"
    },
    {
      "anonymous": false,
      "inputs": [
        {
          "indexed": true,
          "internalType": "uint256",
          "name": "invoiceId",
          "type": "uint256"
        },
        {
          "indexed": true,
          "internalType": "address",
          "name": "holder",
          "type": "address"
        },
        {
          "indexed": false,
          "internalType": "uint256",
          "name": "sharesBurned",
          "type": "uint256"
        },
        {
          "indexed": false,
          "internalType": "uint256",
          "name": "amount",
          "type": "uint256"
        }
      ],
      "name": "Claimed",
      "type": "event"
    },
    {
      "anonymous": false,
      "inputs": [
        {
          "indexed": true,
          "internalType": "uint256",
          "name": "invoiceId",
          "type": "uint256"
        },
        {
          "indexed": false,
          "internalType": "uint256",
          "name": "insuranceTopUp",
          "type": "uint256"
        }
      ],
      "name": "Defaulted",
      "type": "event"
    },
    {
      "anonymous": false,
      "inputs": [
        {
          "indexed": true,
          "internalType": "uint256",
          "name": "invoiceId",
          "type": "uint256"
        },
        {
          "indexed": true,
          "internalType": "address",
          "name": "from",
          "type": "address"
        },
        {
          "indexed": false,
          "internalType": "uint256",
          "name": "amount",
          "type": "uint256"
        },
        {
          "indexed": false,
          "internalType": "uint256",
          "name": "totalRepaid",
          "type": "uint256"
        }
      ],
      "name": "Repaid",
      "type": "event"
    },
    {
      "anonymous": false,
      "inputs": [
        {
          "indexed": true,
          "internalType": "bytes32",
          "name": "role",
          "type": "bytes32"
        },
        {
          "indexed": true,
          "internalType": "bytes32",
          "name": "previousAdminRole",
          "type": "bytes32"
        },
        {
          "indexed": true,
          "internalType": "bytes32",
          "name": "newAdminRole",
          "type": "bytes32"
        }
      ],
      "name": "RoleAdminChanged",
      "type": "event"
    },
    {
      "anonymous": false,
      "inputs": [
        {
          "indexed": true,
          "internalType": "bytes32",
          "name": "role",
          "type": "bytes32"
        },
        {
          "indexed": true,
          "internalType": "address",
          "name": "account",
          "type": "address"
        },
        {
          "indexed": true,
          "internalType": "address",
          "name": "sender",
          "type": "address"
        }
      ],
      "name": "RoleGranted",
      "type": "event"
    },
    {
      "anonymous": false,
      "inputs": [
        {
          "indexed": true,
          "internalType": "bytes32",
          "name": "role",
          "type": "bytes32"
        },
        {
          "indexed": true,
          "internalType": "address",
          "name": "account",
          "type": "address"
        },
        {
          "indexed": true,
          "internalType": "address",
          "name": "sender",
          "type": "address"
        }
      ],
      "name": "RoleRevoked",
      "type": "event"
    },
    {
      "inputs": [],
      "name": "DEFAULT_ADMIN_ROLE",
      "outputs": [
        {
          "internalType": "bytes32",
          "name": "",
          "type": "bytes32"
        }
      ],
      "stateMutability": "view",
      "type": "function"
    },
    {
      "inputs": [],
      "name": "GRACE_PERIOD",
      "outputs": [
        {
          "internalType": "uint256",
          "name": "",
          "type": "uint256"
        }
      ],
      "stateMutability": "view",
      "type": "function"
    },
    {
      "inputs": [
        {
          "internalType": "uint256",
          "name": "invoiceId",
          "type": "uint256"
        }
      ],
      "name": "claim",
      "outputs": [],
      "stateMutability": "nonpayable",
      "type": "function"
    },
    {
      "inputs": [
        {
          "internalType": "bytes32",
          "name": "role",
          "type": "bytes32"
        }
      ],
      "name": "getRoleAdmin",
      "outputs": [
        {
          "internalType": "bytes32",
          "name": "",
          "type": "bytes32"
        }
      ],
      "stateMutability": "view",
      "type": "function"
    },
    {
      "inputs": [
        {
          "internalType": "bytes32",
          "name": "role",
          "type": "bytes32"
        },
        {
          "internalType": "address",
          "name": "account",
          "type": "address"
        }
      ],
      "name": "grantRole",
      "outputs": [],
      "stateMutability": "nonpayable",
      "type": "function"
    },
    {
      "inputs": [
        {
          "internalType": "bytes32",
          "name": "role",
          "type": "bytes32"
        },
        {
          "internalType": "address",
          "name": "account",
          "type": "address"
        }
      ],
      "name": "hasRole",
      "outputs": [
        {
          "internalType": "bool",
          "name": "",
          "type": "bool"
        }
      ],
      "stateMutability": "view",
      "type": "function"
    },
    {
      "inputs": [],
      "name": "insurance",
      "outputs": [
        {
          "internalType": "contract InsurancePool",
          "name": "",
          "type": "address"
        }
      ],
      "stateMutability": "view",
      "type": "function"
    },
    {
      "inputs": [
        {
          "internalType": "uint256",
          "name": "",
          "type": "uint256"
        }
      ],
      "name": "pools",
      "outputs": [
        {
          "internalType": "uint256",
          "name": "totalRepaid",
          "type": "uint256"
        },
        {
          "internalType": "bool",
          "name": "insuranceTriggered",
          "type": "bool"
        }
      ],
      "stateMutability": "view",
      "type": "function"
    },
    {
      "inputs": [
        {
          "internalType": "bytes32",
          "name": "role",
          "type": "bytes32"
        },
        {
          "internalType": "address",
          "name": "callerConfirmation",
          "type": "address"
        }
      ],
      "name": "renounceRole",
      "outputs": [],
      "stateMutability": "nonpayable",
      "type": "function"
    },
    {
      "inputs": [
        {
          "internalType": "uint256",
          "name": "invoiceId",
          "type": "uint256"
        },
        {
          "internalType": "uint256",
          "name": "amount",
          "type": "uint256"
        }
      ],
      "name": "repayInvoice",
      "outputs": [],
      "stateMutability": "nonpayable",
      "type": "function"
    },
    {
      "inputs": [
        {
          "internalType": "bytes32",
          "name": "role",
          "type": "bytes32"
        },
        {
          "internalType": "address",
          "name": "account",
          "type": "address"
        }
      ],
      "name": "revokeRole",
      "outputs": [],
      "stateMutability": "nonpayable",
      "type": "function"
    },
    {
      "inputs": [],
      "name": "shares",
      "outputs": [
        {
          "internalType": "contract InvoiceShares",
          "name": "",
          "type": "address"
        }
      ],
      "stateMutability": "view",
      "type": "function"
    },
    {
      "inputs": [
        {
          "internalType": "bytes4",
          "name": "interfaceId",
          "type": "bytes4"
        }
      ],
      "name": "supportsInterface",
      "outputs": [
        {
          "internalType": "bool",
          "name": "",
          "type": "bool"
        }
      ],
      "stateMutability": "view",
      "type": "function"
    },
    {
      "inputs": [
        {
          "internalType": "uint256",
          "name": "invoiceId",
          "type": "uint256"
        }
      ],
      "name": "triggerDefault",
      "outputs": [],
      "stateMutability": "nonpayable",
      "type": "function"
    },
    {
      "inputs": [],
      "name": "usdc",
      "outputs": [
        {
          "internalType": "contract IERC20",
          "name": "",
          "type": "address"
        }
      ],
      "stateMutability": "view",
      "type": "function"
    }
  ],
  "bytecode": "0x60e0346100e557601f61110a38819003918201601f19168301916001600160401b038311848410176100e9578084926080946040528339810103126100e55780516001600160a01b03919082811681036100e55760208201519083821682036100e55760408301519284841684036100e5576060015193841684036100e557610087906100fd565b5060805260a05260c052604051610f6d908161017d82396080518181816105e5015281816107b7015261096d015260a051818181610226015281816105750152818161081d0152610bb5015260c0518181816101bf01526103a20152f35b5f80fd5b634e487b7160e01b5f52604160045260245ffd5b6001600160a01b03165f8181525f805160206110ea833981519152602052604090205460ff16610177575f8181525f805160206110ea83398151915260205260408120805460ff191660011790553391907f2f8788117e7eff1d82e926ec794901d17c78024a50270940304540a733656f0d8180a4600190565b505f9056fe6080604081815260049182361015610015575f80fd5b5f925f3560e01c91826301ffc9a714610be45750816303314efa14610ba1578163248a9ca314610b785781632f2ff15d14610b4857816336568abe14610b0d578163379607f5146107e65781633e413bee146107a2578163578ef2da1461053d57816363825392146101ee57816389cf3204146101aa57816391d1485414610171578163a217fddf14610156578163ac4afa381461011b57508063c1a287e2146100fe5763d547741f146100c7575f80fd5b346100fa5760016100f6916100f16100de36610c36565b9390928387528660205286200154610e0a565b610ec5565b5080f35b5080fd5b50346100fa57816003193601126100fa576020905162093a808152f35b9050346101525760203660031901126101525791819235815260016020522060ff6001825492015416825191825215156020820152f35b8280fd5b5050346100fa57816003193601126100fa5751908152602090f35b5050346100fa576020918161018536610c36565b92908152808552209060018060a01b03165f52825260ff815f20541690519015158152f35b5050346100fa57816003193601126100fa57517f00000000000000000000000000000000000000000000000000000000000000006001600160a01b03168152602090f35b9190503461015257602080600319360112610366578151631d11e60560e11b81528335818501819052936001600160a01b03916024917f000000000000000000000000000000000000000000000000000000000000000084169188818581865afa908115610533578991610511575b5060e081015190828210156104ff5760018092036104cb578681015162093a8081018091116104b95742111561048b57888a5281875260ff82898c2001541661045557888a52818752878a20808301805460ff191684179055905190548a8183111561044557508103908111610433579086898b96959493975b87988061036a575b5050505050813b15610366576044889185809460038b519788968795633625b75960e21b87528601528401525af1801561035c57610344575b50507f84908fca714735411d4553ddd185a4d6fdc25fda2d15662153ef18a8ad6099b49251908152a280f35b61034d90610c5c565b61035857845f610318565b8480fd5b85513d84823e3d90fd5b8380fd5b8b5163adf58c1560e01b81523087820190815260208101929092526040820193909352939850909283919082908990829060600103927f0000000000000000000000000000000000000000000000000000000000000000165af19081156104295785916103f4575b50809589865287526103e8888620918254610de9565b90555f868982806102df565b809550878092503d8311610422575b61040d8183610c84565b8101031261041e578893515f6103d2565b5f80fd5b503d610403565b88513d87823e3d90fd5b634e487b7160e01b8a5260118352848afd5b95949392915050868986976102d7565b875162461bcd60e51b815280840188905260118187015270185b1c9958591e481d1c9a59d9d95c9959607a1b6044820152606490fd5b875162461bcd60e51b815280840188905260098187015268746f6f206561726c7960b81b6044820152606490fd5b634e487b7160e01b8b5260118452858bfd5b875162461bcd60e51b8152808401889052600f818701526e185b1c9958591e481cd95d1d1b1959608a1b6044820152606490fd5b634e487b7160e01b8a5260218352848afd5b61052d91503d808b833e6105258183610c84565b810190610d14565b5f61025d565b87513d8b823e3d90fd5b9050346101525781600319360112610152578151631d11e60560e11b81528135818301819052602480359491936001600160a01b03937f00000000000000000000000000000000000000000000000000000000000000008516919088818581865afa90811561079857899161077e575b5060e081015195828710156104ff57600180970361074f5788156107265785516323b872dd60e01b8b5233845230865260448a9052907f000000000000000000000000000000000000000000000000000000000000000060208c60648180855af1898d5114811615610708575b8389528c606052156106f1575050509088939291878552866020528585206106438a8254610de9565b9055878552866020528585205490511115610698575b50505091837f82f3cd1e351c1cf149e065782737f7cd0d51ef52fdb03157f0490fc9d069ab47935260205280852054815194855260208501523393a380f35b813b156103665760448791858094600289519788968795633625b75960e21b87528601528401525af180156106e7576106d3575b8080610659565b6106dc90610c5c565b61035857845f6106cc565b83513d84823e3d90fd5b635274afe760e01b83521692810192909252509050fd5b8981151661071d57813b15153d15161661061a565b833d8e823e3d90fd5b855162461bcd60e51b8152602081850152808601849052637a65726f60e01b6044820152606490fd5b855162461bcd60e51b8152602081850152600a81870152691b9bdd081b1a5cdd195960b21b6044820152606490fd5b61079291503d808b833e6105258183610c84565b5f6105ad565b85513d8b823e3d90fd5b5050346100fa57816003193601126100fa57517f00000000000000000000000000000000000000000000000000000000000000006001600160a01b03168152602090f35b90503461041e576020918260031936011261041e578051631d11e60560e11b81528235838201819052909390926001600160a01b037f000000000000000000000000000000000000000000000000000000000000000081169291602491905f888481885afa978815610b03575f98610ae7575b5060e08801805182811015610ad557600214908115610aaf575b5015610a7f578551627eeac760e11b81523382820152838101889052978489604481895afa9889156109f4575f99610a50575b508815610a2257875f5260018552865f205490898202918083048b1490151715610a10578701519081156109fe570494803b1561041e57865163124d91e560e01b815233838201908152602081018a9052604081018b905290915f9183919082908490829060600103925af180156109f4576109e1575b5084610958575b505083519586525084015233927fd9cb1e2714d65a111c0f20f060176ad657496bd47a3de04ec7c3d4ca232112ac9190a380f35b855163a9059cbb60e01b8a52338252858452917f0000000000000000000000000000000000000000000000000000000000000000858b60448180855af160018c51148116156109c2575b848952156109b1575050610924565b635274afe760e01b84521690820152fd5b60018115166109d857813b15153d1516166109a2565b843d8d823e3d90fd5b6109ec919950610c5c565b5f975f61091d565b87513d5f823e3d90fd5b84601284634e487b7160e01b5f52525ffd5b84601184634e487b7160e01b5f52525ffd5b865162461bcd60e51b8152808301869052600981860152686e6f2073686172657360b81b6044820152606490fd5b9098508481813d8311610a78575b610a688183610c84565b8101031261041e5751975f6108a6565b503d610a5e565b855162461bcd60e51b8152908101849052600b818401526a1b9bdd081cd95d1d1b195960aa1b6044820152606490fd5b90505181811015610ac3576003145f610873565b83602183634e487b7160e01b5f52525ffd5b84602184634e487b7160e01b5f52525ffd5b610afc9198503d805f833e6105258183610c84565b965f610859565b86513d5f823e3d90fd5b823461041e57610b1c36610c36565b91336001600160a01b03841603610b3957610b378383610ec5565b005b5163334bd91960e11b81528390fd5b823461041e576001610b3791610b73610b6036610c36565b939092835f525f6020525f200154610e0a565b610e49565b823461041e57602036600319011261041e57602091355f525f82526001815f2001549051908152f35b823461041e575f36600319011261041e57517f00000000000000000000000000000000000000000000000000000000000000006001600160a01b03168152602090f35b903461041e57602036600319011261041e57359063ffffffff60e01b821680920361041e57602091637965db0b60e01b8114908115610c25575b5015158152f35b6301ffc9a760e01b14905083610c1e565b604090600319011261041e57600435906024356001600160a01b038116810361041e5790565b67ffffffffffffffff8111610c7057604052565b634e487b7160e01b5f52604160045260245ffd5b90601f8019910116810190811067ffffffffffffffff821117610c7057604052565b919080601f8401121561041e57825167ffffffffffffffff8111610c705760209060405192610cde83601f19601f8501160185610c84565b81845282828701011161041e575f5b818110610d015750825f9394955001015290565b8581018301518482018401528201610ced565b60208183031261041e57805167ffffffffffffffff9182821161041e57019061010092838382031261041e5760405193840184811083821117610c705760409081528351855260208085015190860152838101519085015260608301516001600160a01b038116810361041e576060850152608083015182811161041e5781610d9e918501610ca6565b608085015260a083015191821161041e57610dba918301610ca6565b60a083015260c081015190600482101561041e5760e09160c08401520151600481101561041e5760e082015290565b91908201809211610df657565b634e487b7160e01b5f52601160045260245ffd5b805f525f60205260405f20335f5260205260ff60405f20541615610e2b5750565b6044906040519063e2517d3f60e01b82523360048301526024820152fd5b90815f525f60205260405f209060018060a01b031690815f5260205260ff60405f205416155f14610ebf57815f525f60205260405f20815f5260205260405f20600160ff1982541617905533917f2f8788117e7eff1d82e926ec794901d17c78024a50270940304540a733656f0d5f80a4600190565b50505f90565b90815f525f60205260405f209060018060a01b031690815f5260205260ff60405f2054165f14610ebf57815f525f60205260405f20815f5260205260405f2060ff19815416905533917ff6391f5c32d9c69d2a47ea670b442974b53935d1edc7fd64eb21e047a839171b5f80a460019056fea2646970667358221220ab2dfbfa1bfb333dd04e98494bd8786d7d24c5f57fc18399b28e9f44547da9ea64736f6c63430008180033ad3228b676f7d3cd4284a5443f17f1962b36e491b30a40b2405849e597ba5fb5",
  "linkReferences": {},
  "deployedLinkReferences": {}
}